:060000000A128A11122809
:10000800FE00030883120313B0000408B1000A08B5
:10001800B2007F08B3000A128A11322B0A128A1121
:10002800B32CFF1B1F2883137F1883170008840A2B
:100038000319FF0A080000308A000408840A8207AE
:1000480000340134003410340034003401340034F6
:100058001034303431343234333434343534363483
:1000680037343834393441344234433444344534F1
:10007800463400342034203441344434433420346A
:100088003D34203430347834303430343034303403
:10009800003425342E343234583400348312031398
:1000A800A6007930FB007B08A1007F292808253AA3
:1000B80003195F2860286C282808FB00260884009C
:1000C8007B08831380000130FB007B08A6077F298B
:1000D8000310003003180130A000780884000A12C9
:1000E8008A111F200A128A112E3A031D7C287D28A6
:1000F800B5280130FB007B08F8070310003003180F
:100108000130A700A4280A30FB007B08F00027086C
:100118000A128A1183240A128A11FC0078088400C2
:100128000A128A111F200A128A117C07D03EFD008C
:100138007D0883120313A7000130FB007B08F80732
:10014800780884000A128A111F200A128A110A12DA
:100158008A119C240A128A110318B328B428872804
:10016800BC28031000300318013083120313A700C2
:10017800C1289329D8287F29D82800010138F807F1
:100188000001FF38780784000A128A111F200A121A
:100198008A11A800003A0319BD28583A0319BE2845
:1001A800203A0319BE28BF28210884000008A200AD
:1001B800840A0008A3000230FB007B08A107A708F7
:1001C800031DE728E828F22823082204031DED2848
:1001D800EE28F2280130FB007B08A707A8010314CA
:1001E800A80D2808043A031DFA28FB28FC28222910
:1001F8002808FB007B07013E84000A128A111F2091
:100208000A128A11FC000A128A111F200A128A1186
:10021800FD007D082302031D13297C082202031810
:1002280016291729182922290130FB007B08A8075D
:100238002808043A031D21292229FC282808803A85
:10024800FB002708803AFB0203182B292C293129A7
:100258002708FB007B08A8003F292708803AFB00F5
:100268002808803AFB0203183A293B293F29280825
:10027800FB007B08A70075292708FB007B07013EC8
:1002880084000A128A111F200A128A11F0000A1229
:100298008A111F200A128A11F1002308F301F307BB
:1002A8002208F201F2070A128A1137220A128A1169
:1002B80070080F39093E84000A128A111F200A1299
:1002C8008A11FC007C0883120313A8002808FB008D
:1002D800260884007B08831380000130FB007B081C
:1002E800A607FF30FB007B08A7072708FF3A031D76
:1002F8007E297F29402900010138F8070001FF38CD
:10030800780784000A128A111F200A128A11FB003A
:100318007B08A800A808031D922993295A280310CE
:1003280026088400003003180130800008000310FC
:1003380000300318013083120313B6000310003095
:1003480003180130B7000310003003180130B8005B
:10035800FF308316031387000230831203138600CD
:10036800061500000708F039B4003408B700FB3060
:10037800B400340886058316031386018312031319
:100388008601FF308316031387000230831203139C
:100398008600061500000708B40004300310B40CEA
:1003A800FF3E031DD22934080F39B5003508B600C1
:1003B800FB30B4003408860536083707B400340823
:1003C800B800B81BE829E929AC2908000310003057
:1003D80003180130F2000310003003180130F30055
:1003E8000310003003180130F400FF3083160313A4
:1003F80087000230831203138600061500000708E1
:10040800F039F0007008F300FB30F0007008860542
:10041800831603138601831203138601FF308316A4
:1004280003138700023083120313860006150000A9
:100438000708F00004300310F00CFF3E031D1F2ACC
:1004480070080F39F1007108F200FB30F0007008F5
:10045800860572087307F0007008F400F41B352A4B
:10046800362AF92908000030F5000030F600710836
:1004780070040319402A412A792AF7010314F70D59
:10048800502A01300310F00DF10DFF3E031D462ADE
:100498000130F4007408F707F11F532A542A452A3B
:1004A80001300310F50DF60DFF3E031D552A7108A6
:1004B8007302031D612A70087202031C642A652AEC
:1004C8006C2A7008F2027108031CF303F302751416
:1004D80001300310F10CF00CFF3E031D6D2A0130B2
:1004E800F702031D782A792A542A7608F101F107C0
:1004F8007508F001F00708008A300A128A11D02323
:100508000A128A11293083120313A9002908F80056
:100518001E08AA00AB012A08F9002B08FA002C30A3
:100528000A128A1152200A128A112C300A128A11D0
:10053800F9220A128A11293083120313A900290803
:10054800F800831603131E0883120313AA00AB01D5
:100558002A08F9002B08FA002C300A128A115220B6
:100568000A128A112C300A128A11F9220A128A11E7
:100578000800831203133C08BE01BE073B08BD01F7
:10058800BD07DC2A3E08FF003D0884000A128A11D4
:1005980015200A128A110A128A1103240A128A11D2
:1005A800013083120313BD070318BE0A0030BE07CB
:1005B8003E08FF003D0884000A128A1115200A121D
:1005C8008A11003A0319E92AEA2AF82A3E08FF00A4
:1005D8003D0884000A128A1115200A128A110A3A63
:1005E800031DF72AF82AC62A0800F7007808F90137
:1005F800F9077708F801F807152B7908FF0078083C
:1006080084000A128A1115200A128A110A128A1104
:1006180034240A128A110130F8070318F90A003045
:10062800F9077908FF00780884000A128A11152052
:100638000A128A11003A0319222B232B312B79082D
:10064800FF00780884000A128A1115200A128A11FC
:100658000A3A031D302B312B012B08008B1E352B3A
:10066800362B5B2B0B1D392B3A2B5B2B0B110130D7
:10067800AF002F08C0074008053A031D442B452B3F
:10068800462B1F1540080A3A031D4B2B4C2B5A2B9F
:100698000310003003180130C0001F19542B552BCC
:1006A8005A2B0A128A1180220A128A115B2B831292
:1006B80003133308FF0032088A0031088400300829
:1006C8008300FE0E7E0E090083120313BA00831600
:1006D80003138701831203133A08F039870083163E
:1006E8000313860183120313860186010615000091
:1006F800FB30B90039088605831603138701831276
:1007080003133A08B90003300310B90DFF3E031D67
:10071800882B0310390D8700860106150000FB3071
:10072800B900390886050A128A119B210A128A1112
:100738000800031000300318013083120313C000AF
:100748000A128A1163240A128A111A3083120313B7
:10075800BB008030BC000A128A11BD220A128A111D
:10076800FF3083160313850080309F00C130831249
:1007780003139F00F930BF006400BF0BC02BC42BCC
:10078800640005308316031381008B160B178B1733
:10079800CC2B0A128A111228F6008316031387013C
:1007A8007608F03983120313870083160313860132
:1007B800831203138601860106150000FB30F5003D
:1007C800750886058316031387017608F50003303C
:1007D8000310F50DFF3E031DEC2B0310750D83125E
:1007E80003138700860106150000FB30F500750825
:1007F80086050A128A11EA210A128A110800831250
:100808000313BA00831603138701831203133A08EC
:10081800F03987000130860006150000FB30B9006A
:1008280039088605831603138701831203133A08D0
:10083800B90003300310B90DFF3E031D1E2C031031
:10084800390D87000130860006150000FB30B9001D
:10085800390886050A128A119B210A128A11080092
:10086800F6008316031387017608F0398312031301
:1008780087000130860006150000FB30F50075087A
:1008880086058316031387017608F50003300310E5
:10089800F50DFF3E031D4B2C0310750D831203133A
:1008A80087000130860006150000FB30F50075084A
:1008B80086050A128A11EA210A128A110800FF30F5
:1008C80083120313870083160313870020300A124C
:1008D8008A1168230A128A110C300A128A116823B5
:1008E8000A128A1106300A128A1168230A128A111A
:1008F80080300A128A1168230A128A110800F3004C
:100908000310003003180130F200731C8C2C8D2C5E
:10091800912C7008F1007108F2070310F00D031014
:10092800F30CF308031D992C9A2C892C72080800E3
:10093800F1000310003003180130F0003A30710262
:100948000318A72CA82CB12C30307102031CAD2C35
:10095800AE2CB12CF0010314F00D700C0800C0018E
:0809680083010A128A119D2B84
:00000001FF
