:060000000A128A11492FCB
:100E920083010A128A114D2F0A128A1160270A123F
:100EA2008A11FF3083160313850080309F00C13002
:100EB200831203139F005C2F0A128A110028FF304D
:100EC20083120313870083160313870020300A124C
:100ED2008A1180270A128A110C300A128A1180277D
:100EE2000A128A1106300A128A1180270A128A11FE
:100EF20080300A128A1180270A128A110800F6002D
:100F02008316031387017608F039831203138700CF
:100F120083160313860183120313860186010615C5
:100F22000000FB30F5007508860583160313870160
:100F32007608F50003300310F50DFF3E031D9C2FCC
:100F42000310750D83120313870086010615000036
:100F5200FB30F500750886050A128A11B3270A12BA
:100F62008A1108000310003003180130F200031048
:100F7200003003180130F300031000300318013071
:100F8200F400FF3083160313870002308312031329
:100F92008600061500000708F039F0007008F3001B
:100FA200FB30F00070088605831603138601831256
:100FB20003138601FF308316031387000230831266
:100FC20003138600061500000708F0000430031022
:100FD200F00CFF3E031DE82F70080F39F100710875
:100FE200F200FB30F0007008860572087307F0000B
:0E0FF2007008F400F41BFE2FFF2FC22F080022
:00000001FF
